{
  "_format": "hh-sol-artifact-1",
  "contractName": "Store",
  "sourceName": "contracts/Store.sol",
  "abi": [
    {
      "inputs": [],
      "stateMutability": "nonpayable",
      "type": "constructor"
    },
    {
      "inputs": [
        {
          "internalType": "address",
          "name": "owner",
          "type": "address"
        }
      ],
      "name": "OwnableInvalidOwner",
      "type": "error"
    },
    {
      "inputs": [
        {
          "internalType": "address",
          "name": "account",
          "type": "address"
        }
      ],
      "name": "OwnableUnauthorizedAccount",
      "type": "error"
    },
    {
      "anonymous": false,
      "inputs": [
        {
          "indexed": true,
          "internalType": "address",
          "name": "previousOwner",
          "type": "address"
        },
        {
          "indexed": true,
          "internalType": "address",
          "name": "newOwner",
          "type": "address"
        }
      ],
      "name": "OwnershipTransferred",
      "type": "event"
    },
    {
      "inputs": [],
      "name": "cvHash",
      "outputs": [
        {
          "internalType": "string",
          "name": "",
          "type": "string"
        }
      ],
      "stateMutability": "view",
      "type": "function"
    },
    {
      "inputs": [],
      "name": "owner",
      "outputs": [
        {
          "internalType": "address",
          "name": "",
          "type": "address"
        }
      ],
      "stateMutability": "view",
      "type": "function"
    },
    {
      "inputs": [],
      "name": "renounceOwnership",
      "outputs": [],
      "stateMutability": "nonpayable",
      "type": "function"
    },
    {
      "inputs": [
        {
          "internalType": "string",
          "name": "_hash",
          "type": "string"
        }
      ],
      "name": "setCVHash",
      "outputs": [],
      "stateMutability": "nonpayable",
      "type": "function"
    },
    {
      "inputs": [
        {
          "internalType": "address",
          "name": "newOwner",
          "type": "address"
        }
      ],
      "name": "transferOwnership",
      "outputs": [],
      "stateMutability": "nonpayable",
      "type": "function"
    }
  ],
  "bytecode": "0x608060405234801561001057600080fd5b5033600073ffffffffffffffffffffffffffffffffffffffff168173ffffffffffffffffffffffffffffffffffffffff16036100845760006040517f1e4fbdf700000000000000000000000000000000000000000000000000000000815260040161007b919061019e565b60405180910390fd5b6100938161009960201b60201c565b506101b9565b60008060009054906101000a900473ffffffffffffffffffffffffffffffffffffffff169050816000806101000a81548173ffffffffffffffffffffffffffffffffffffffff021916908373ffffffffffffffffffffffffffffffffffffffff1602179055508173ffffffffffffffffffffffffffffffffffffffff168173ffffffffffffffffffffffffffffffffffffffff167f8be0079c531659141344cd1fd0a4f28419497f9722a3daafe3b4186f6b6457e060405160405180910390a35050565b600073ffffffffffffffffffffffffffffffffffffffff82169050919050565b60006101888261015d565b9050919050565b6101988161017d565b82525050565b60006020820190506101b3600083018461018f565b92915050565b6109b0806101c86000396000f3fe608060405234801561001057600080fd5b50600436106100575760003560e01c8063715018a61461005c5780638da5cb5b14610066578063bc95a2c414610084578063c8f09932146100a0578063f2fde38b146100be575b600080fd5b6100646100da565b005b61006e6100ee565b60405161007b91906103da565b60405180910390f35b61009e6004803603810190610099919061054f565b610117565b005b6100a8610132565b6040516100b59190610617565b60405180910390f35b6100d860048036038101906100d39190610665565b6101c0565b005b6100e2610246565b6100ec60006102cd565b565b60008060009054906101000a900473ffffffffffffffffffffffffffffffffffffffff16905090565b61011f610246565b806001908161012e91906108a8565b5050565b6001805461013f906106c1565b80601f016020809104026020016040519081016040528092919081815260200182805461016b906106c1565b80156101b85780601f1061018d576101008083540402835291602001916101b8565b820191906000526020600020905b81548152906001019060200180831161019b57829003601f168201915b505050505081565b6101c8610246565b600073ffffffffffffffffffffffffffffffffffffffff168173ffffffffffffffffffffffffffffffffffffffff160361023a5760006040517f1e4fbdf700000000000000000000000000000000000000000000000000000000815260040161023191906103da565b60405180910390fd5b610243816102cd565b50565b61024e610391565b73ffffffffffffffffffffffffffffffffffffffff1661026c6100ee565b73ffffffffffffffffffffffffffffffffffffffff16146102cb5761028f610391565b6040517f118cdaa70000000000000000000000000000000000000000000000000000000081526004016102c291906103da565b60405180910390fd5b565b60008060009054906101000a900473ffffffffffffffffffffffffffffffffffffffff169050816000806101000a81548173ffffffffffffffffffffffffffffffffffffffff021916908373ffffffffffffffffffffffffffffffffffffffff1602179055508173ffffffffffffffffffffffffffffffffffffffff168173ffffffffffffffffffffffffffffffffffffffff167f8be0079c531659141344cd1fd0a4f28419497f9722a3daafe3b4186f6b6457e060405160405180910390a35050565b600033905090565b600073ffffffffffffffffffffffffffffffffffffffff82169050919050565b60006103c482610399565b9050919050565b6103d4816103b9565b82525050565b60006020820190506103ef60008301846103cb565b92915050565b6000604051905090565b600080fd5b600080fd5b600080fd5b600080fd5b6000601f19601f8301169050919050565b7f4e487b7100000000000000000000000000000000000000000000000000000000600052604160045260246000fd5b61045882610413565b810181811067ffffffffffffffff8211171561047757610476610424565b5b80604052505050565b600061048a6103f5565b9050610496828261044f565b919050565b600067ffffffffffffffff8211156104b6576104b5610424565b5b6104bf82610413565b9050602081019050919050565b82818337600083830152505050565b60006104ee6104e98461049b565b610480565b90508281526020810184848401111561050a5761050961040e565b5b6105158482856104cc565b509392505050565b600082601f83011261053257610531610409565b5b81356105428482602086016104db565b91505092915050565b60006020828403121561056157610560610400565b5b600082013567ffffffffffffffff81111561057f5761057e610405565b5b61058b8482850161051d565b91505092915050565b600081519050919050565b600082825260208201905092915050565b60005b838110156105ce5780820151818401526020810190506105b3565b60008484015250505050565b60006105e582610594565b6105ef818561059f565b93506105ff8185602086016105b0565b61060881610413565b840191505092915050565b6000602082019050818103600083015261062d81846105da565b905092915050565b61063e816103b9565b811461064957600080fd5b50565b60008135905061065b81610635565b92915050565b60006020828403121561067757610676610400565b5b60006106858482850161064c565b91505092915050565b7f4e487b7100000000000000000000000000000000000000000000000000000000600052602260045260246000fd5b600060028204905060018216806106d957607f821691505b6020821081036106ec576106eb61068e565b5b50919050565b60008190508160005260206000209050919050565b60006020601f8301049050919050565b600082821b905092915050565b60006008830261074e7fffffffffffffffffffffffffffffffffffffffffffffffffffffffffffffffff82610711565b6107588683610711565b95508019841693508086168417925050509392505050565b6000819050919050565b6000819050919050565b60006107a561079f61079a84610770565b61077a565b610770565b9050919050565b6000819050919050565b6107bf83610784565b6107d36107cb826107ac565b84845461071e565b825550505050565b600090565b6107e86107db565b6107f38184846107b6565b505050565b5b818110156108175761080c6000826107e0565b6001810190506107f9565b5050565b601f82111561085c5761082d816106f2565b61083684610707565b81016020851015610845578190505b61085961085185610707565b8301826107f8565b50505b505050565b600082821c905092915050565b600061087f60001984600802610861565b1980831691505092915050565b6000610898838361086e565b9150826002028217905092915050565b6108b182610594565b67ffffffffffffffff8111156108ca576108c9610424565b5b6108d482546106bd565b6108df82828561081b565b600060209050601f8311600181146109125760008415610900578287015190505b61090a858261088c565b865550610972565b601f198416610920866106f2565b60005b8281101561094857848901518255600182019150602085019450602081019050610923565b868310156109655784890151610961601f89168261086e565b8355505b6001600288020188555050505b50505050505056fea26469706673582212203e8c7c7c8e4c8c4c8c4c8c4c8c4c8c4c8c4c8c4c8c4c8c4c8c4c8c4c8c4c8c4c64736f6c63430008180033",
  "linkReferences": {},
  "deployedLinkReferences": {}
}