{
  "_format": "hh-sol-artifact-1",
  "contractName": "Store",
  "sourceName": "contracts/Store.sol",
  "abi": [
    {
      "anonymous": false,
      "inputs": [
        {
          "indexed": true,
          "internalType": "address",
          "name": "previousOwner",
          "type": "address"
        },
        {
          "indexed": true,
          "internalType": "address",
          "name": "newOwner",
          "type": "address"
        }
      ],
      "name": "OwnershipTransferred",
      "type": "event"
    },
    {
      "inputs": [],
      "name": "cvHash",
      "outputs": [
        {
          "internalType": "string",
          "name": "",
          "type": "string"
        }
      ],
      "stateMutability": "view",
      "type": "function"
    },
    {
      "inputs": [],
      "name": "owner",
      "outputs": [
        {
          "internalType": "address",
          "name": "",
          "type": "address"
        }
      ],
      "stateMutability": "view",
      "type": "function"
    },
    {
      "inputs": [],
      "name": "renounceOwnership",
      "outputs": [],
      "stateMutability": "nonpayable",
      "type": "function"
    },
    {
      "inputs": [
        {
          "internalType": "string",
          "name": "_hash",
          "type": "string"
        }
      ],
      "name": "setCVHash",
      "outputs": [],
      "stateMutability": "nonpayable",
      "type": "function"
    },
    {
      "inputs": [
        {
          "internalType": "address",
          "name": "newOwner",
          "type": "address"
        }
      ],
      "name": "transferOwnership",
      "outputs": [],
      "stateMutability": "nonpayable",
      "type": "function"
    }
  ],
  "bytecode": "0x608060405234801561001057600080fd5b5061002d61002261003260201b60201c565b61003a60201b60201c565b6100fe565b600033905090565b60008060009054906101000a900473ffffffffffffffffffffffffffffffffffffffff169050816000806101000a81548173ffffffffffffffffffffffffffffffffffffffff021916908373ffffffffffffffffffffffffffffffffffffffff1602179055508173ffffffffffffffffffffffffffffffffffffffff168173ffffffffffffffffffffffffffffffffffffffff167f8be0079c531659141344cd1fd0a4f28419497f9722a3daafe3b4186f6b6457e060405160405180910390a35050565b610aa28061010d6000396000f3fe608060405234801561001057600080fd5b50600436106100575760003560e01c8063715018a61461005c5780638da5cb5b14610066578063bc95a2c414610084578063c8f09932146100a0578063f2fde38b146100be575b600080fd5b6100646100da565b005b61006e6100ee565b60405161007b91906103ce565b60405180910390f35b61009e60048036038101906100999190610543565b610117565b005b6100a8610132565b6040516100b5919061060b565b60405180910390f35b6100d860048036038101906100d39190610659565b6101c0565b005b6100e2610243565b6100ec60006102c1565b565b60008060009054906101000a900473ffffffffffffffffffffffffffffffffffffffff16905090565b61011f610243565b806001908161012e919061089c565b5050565b6001805461013f906106b5565b80601f016020809104026020016040519081016040528092919081815260200182805461016b906106b5565b80156101b85780601f1061018d576101008083540402835291602001916101b8565b820191906000526020600020905b81548152906001019060200180831161019b57829003601f168201915b505050505081565b6101c8610243565b600073ffffffffffffffffffffffffffffffffffffffff168173ffffffffffffffffffffffffffffffffffffffff1603610237576040517f08c379a000000000000000000000000000000000000000000000000000000000815260040161022e906109e0565b60405180910390fd5b610240816102c1565b50565b61024b610385565b73ffffffffffffffffffffffffffffffffffffffff166102696100ee565b73ffffffffffffffffffffffffffffffffffffffff16146102bf576040517f08c379a00000000000000000000000000000000000000000000000000000000081526004016102b690610a4c565b60405180910390fd5b565b60008060009054906101000a900473ffffffffffffffffffffffffffffffffffffffff169050816000806101000a81548173ffffffffffffffffffffffffffffffffffffffff021916908373ffffffffffffffffffffffffffffffffffffffff1602179055508173ffffffffffffffffffffffffffffffffffffffff168173ffffffffffffffffffffffffffffffffffffffff167f8be0079c531659141344cd1fd0a4f28419497f9722a3daafe3b4186f6b6457e060405160405180910390a35050565b600033905090565b600073ffffffffffffffffffffffffffffffffffffffff82169050919050565b60006103b88261038d565b9050919050565b6103c8816103ad565b82525050565b60006020820190506103e360008301846103bf565b92915050565b6000604051905090565b600080fd5b600080fd5b600080fd5b600080fd5b6000601f19601f8301169050919050565b7f4e487b7100000000000000000000000000000000000000000000000000000000600052604160045260246000fd5b61045082610407565b810181811067ffffffffffffffff8211171561046f5761046e610418565b5b80604052505050565b60006104826103e9565b905061048e8282610447565b919050565b600067ffffffffffffffff8211156104ae576104ad610418565b5b6104b782610407565b9050602081019050919050565b82818337600083830152505050565b60006104e66104e184610493565b610478565b90508281526020810184848401111561050257610501610402565b5b61050d8482856104c4565b509392505050565b600082601f83011261052a576105296103fd565b5b813561053a8482602086016104d3565b91505092915050565b600060208284031215610559576105586103f3565b5b600082013567ffffffffffffffff811115610577576105766103f8565b5b61058384828501610515565b91505092915050565b600081519050919050565b600082825260208201905092915050565b60005b838110156105c65780820151818401526020810190506105ab565b60008484015250505050565b60006105dd8261058c565b6105e78185610597565b93506105f78185602086016105a8565b61060081610407565b840191505092915050565b6000602082019050818103600083015261062581846105d2565b905092915050565b610636816103ad565b811461064157600080fd5b50565b6000813590506106538161062d565b92915050565b60006020828403121561066f5761066e6103f3565b5b600061067d84828501610644565b91505092915050565b7f4e487b7100000000000000000000000000000000000000000000000000000000600052602260045260246000fd5b600060028204905060018216806106cd57607f821691505b6020821081036106e0576106df610686565b5b50919050565b60008190508160005260206000209050919050565b60006020601f8301049050919050565b600082821b905092915050565b6000600883026107487fffffffffffffffffffffffffffffffffffffffffffffffffffffffffffffffff8261070b565b610752868361070b565b95508019841693508086168417925050509392505050565b6000819050919050565b6000819050919050565b600061079961079461078f8461076a565b610774565b61076a565b9050919050565b6000819050919050565b6107b38361077e565b6107c76107bf826107a0565b848454610718565b825550505050565b600090565b6107dc6107cf565b6107e78184846107aa565b505050565b5b8181101561080b576108006000826107d4565b6001810190506107ed565b5050565b601f82111561085057610821816106e6565b61082a846106fb565b81016020851015610839578190505b61084d610845856106fb565b8301826107ec565b50505b505050565b600082821c905092915050565b600061087360001984600802610855565b1980831691505092915050565b600061088c8383610862565b9150826002028217905092915050565b6108a58261058c565b67ffffffffffffffff8111156108be576108bd610418565b5b6108c882546106b5565b6108d382828561080f565b600060209050601f83116001811461090657600084156108f4578287015190505b6108fe8582610880565b865550610966565b601f198416610914866106e6565b60005b8281101561093c57848901518255600182019150602085019450602081019050610917565b868310156109595784890151610955601f891682610862565b8355505b6001600288020188555050505b505050505050565b7f4f776e61626c653a206e6577206f776e657220697320746865207a65726f206160008201527f6464726573730000000000000000000000000000000000000000000000000000602082015250565b60006109ca602683610597565b91506109d58261096e565b604082019050919050565b600060208201905081810360008301526109f9816109bd565b9050919050565b7f4f776e61626c653a2063616c6c6572206973206e6f7420746865206f776e6572600082015250565b6000610a36602083610597565b9150610a4182610a00565b602082019050919050565b60006020820190508181036000830152610a6581610a29565b905091905056fea26469706673582212204dce3e1c841b239093b2dd808eb7c68a8b51873b6691ce0e1ad6c800c266b62264736f6c63430008110033",
  "linkReferences": {},
  "deployedLinkReferences": {}
}